{
  "contractName": "Token",
  "abi": [
    {
      "inputs": [],
      "payable": false,
      "stateMutability": "nonpayable",
      "type": "constructor"
    },
    {
      "anonymous": false,
      "inputs": [
        {
          "indexed": true,
          "internalType": "address",
          "name": "owner",
          "type": "address"
        },
        {
          "indexed": true,
          "internalType": "address",
          "name": "spender",
          "type": "address"
        },
        {
          "indexed": false,
          "internalType": "uint256",
          "name": "value",
          "type": "uint256"
        }
      ],
      "name": "Approval",
      "type": "event"
    },
    {
      "anonymous": false,
      "inputs": [
        {
          "indexed": true,
          "internalType": "address",
          "name": "from",
          "type": "address"
        },
        {
          "indexed": true,
          "internalType": "address",
          "name": "to",
          "type": "address"
        },
        {
          "indexed": false,
          "internalType": "uint256",
          "name": "value",
          "type": "uint256"
        }
      ],
      "name": "Transfer",
      "type": "event"
    },
    {
      "constant": false,
      "inputs": [
        {
          "internalType": "address",
          "name": "account",
          "type": "address"
        },
        {
          "internalType": "uint256",
          "name": "amount",
          "type": "uint256"
        }
      ],
      "name": "_burn",
      "outputs": [],
      "payable": false,
      "stateMutability": "nonpayable",
      "type": "function"
    },
    {
      "constant": true,
      "inputs": [],
      "name": "_decimals",
      "outputs": [
        {
          "internalType": "uint8",
          "name": "",
          "type": "uint8"
        }
      ],
      "payable": false,
      "stateMutability": "view",
      "type": "function"
    },
    {
      "constant": true,
      "inputs": [],
      "name": "_name",
      "outputs": [
        {
          "internalType": "string",
          "name": "",
          "type": "string"
        }
      ],
      "payable": false,
      "stateMutability": "view",
      "type": "function"
    },
    {
      "constant": true,
      "inputs": [],
      "name": "_symbol",
      "outputs": [
        {
          "internalType": "string",
          "name": "",
          "type": "string"
        }
      ],
      "payable": false,
      "stateMutability": "view",
      "type": "function"
    },
    {
      "constant": true,
      "inputs": [
        {
          "internalType": "address",
          "name": "owner",
          "type": "address"
        },
        {
          "internalType": "address",
          "name": "spender",
          "type": "address"
        }
      ],
      "name": "allowance",
      "outputs": [
        {
          "internalType": "uint256",
          "name": "",
          "type": "uint256"
        }
      ],
      "payable": false,
      "stateMutability": "view",
      "type": "function"
    },
    {
      "constant": false,
      "inputs": [
        {
          "internalType": "address",
          "name": "spender",
          "type": "address"
        },
        {
          "internalType": "uint256",
          "name": "amount",
          "type": "uint256"
        }
      ],
      "name": "approve",
      "outputs": [
        {
          "internalType": "bool",
          "name": "",
          "type": "bool"
        }
      ],
      "payable": false,
      "stateMutability": "nonpayable",
      "type": "function"
    },
    {
      "constant": true,
      "inputs": [
        {
          "internalType": "address",
          "name": "account",
          "type": "address"
        }
      ],
      "name": "balanceOf",
      "outputs": [
        {
          "internalType": "uint256",
          "name": "",
          "type": "uint256"
        }
      ],
      "payable": false,
      "stateMutability": "view",
      "type": "function"
    },
    {
      "constant": true,
      "inputs": [],
      "name": "decimals",
      "outputs": [
        {
          "internalType": "uint8",
          "name": "",
          "type": "uint8"
        }
      ],
      "payable": false,
      "stateMutability": "view",
      "type": "function"
    },
    {
      "constant": false,
      "inputs": [
        {
          "internalType": "address",
          "name": "spender",
          "type": "address"
        },
        {
          "internalType": "uint256",
          "name": "subtractedValue",
          "type": "uint256"
        }
      ],
      "name": "decreaseAllowance",
      "outputs": [
        {
          "internalType": "bool",
          "name": "",
          "type": "bool"
        }
      ],
      "payable": false,
      "stateMutability": "nonpayable",
      "type": "function"
    },
    {
      "constant": false,
      "inputs": [
        {
          "internalType": "address",
          "name": "spender",
          "type": "address"
        },
        {
          "internalType": "uint256",
          "name": "addedValue",
          "type": "uint256"
        }
      ],
      "name": "increaseAllowance",
      "outputs": [
        {
          "internalType": "bool",
          "name": "",
          "type": "bool"
        }
      ],
      "payable": false,
      "stateMutability": "nonpayable",
      "type": "function"
    },
    {
      "constant": true,
      "inputs": [],
      "name": "name",
      "outputs": [
        {
          "internalType": "string",
          "name": "",
          "type": "string"
        }
      ],
      "payable": false,
      "stateMutability": "view",
      "type": "function"
    },
    {
      "constant": true,
      "inputs": [
        {
          "internalType": "uint256",
          "name": "",
          "type": "uint256"
        }
      ],
      "name": "places",
      "outputs": [
        {
          "internalType": "string",
          "name": "",
          "type": "string"
        }
      ],
      "payable": false,
      "stateMutability": "view",
      "type": "function"
    },
    {
      "constant": true,
      "inputs": [],
      "name": "symbol",
      "outputs": [
        {
          "internalType": "string",
          "name": "",
          "type": "string"
        }
      ],
      "payable": false,
      "stateMutability": "view",
      "type": "function"
    },
    {
      "constant": true,
      "inputs": [],
      "name": "totalSupply",
      "outputs": [
        {
          "internalType": "uint256",
          "name": "",
          "type": "uint256"
        }
      ],
      "payable": false,
      "stateMutability": "view",
      "type": "function"
    },
    {
      "constant": false,
      "inputs": [
        {
          "internalType": "address",
          "name": "recipient",
          "type": "address"
        },
        {
          "internalType": "uint256",
          "name": "amount",
          "type": "uint256"
        }
      ],
      "name": "transfer",
      "outputs": [
        {
          "internalType": "bool",
          "name": "",
          "type": "bool"
        }
      ],
      "payable": false,
      "stateMutability": "nonpayable",
      "type": "function"
    },
    {
      "constant": false,
      "inputs": [
        {
          "internalType": "address",
          "name": "sender",
          "type": "address"
        },
        {
          "internalType": "address",
          "name": "recipient",
          "type": "address"
        },
        {
          "internalType": "uint256",
          "name": "amount",
          "type": "uint256"
        }
      ],
      "name": "transferFrom",
      "outputs": [
        {
          "internalType": "bool",
          "name": "",
          "type": "bool"
        }
      ],
      "payable": false,
      "stateMutability": "nonpayable",
      "type": "function"
    },
    {
      "constant": false,
      "inputs": [
        {
          "internalType": "string",
          "name": "name",
          "type": "string"
        },
        {
          "internalType": "string",
          "name": "symbol",
          "type": "string"
        },
        {
          "internalType": "uint256",
          "name": "amnt",
          "type": "uint256"
        }
      ],
      "name": "mint",
      "outputs": [],
      "payable": true,
      "stateMutability": "payable",
      "type": "function"
    },
    {
      "constant": false,
      "inputs": [
        {
          "internalType": "string",
          "name": "place",
          "type": "string"
        },
        {
          "internalType": "address",
          "name": "_address",
          "type": "address"
        }
      ],
      "name": "_send",
      "outputs": [],
      "payable": false,
      "stateMutability": "nonpayable",
      "type": "function"
    },
    {
      "constant": false,
      "inputs": [
        {
          "internalType": "string",
          "name": "place",
          "type": "string"
        }
      ],
      "name": "callb",
      "outputs": [],
      "payable": false,
      "stateMutability": "nonpayable",
      "type": "function"
    },
    {
      "constant": true,
      "inputs": [],
      "name": "arr",
      "outputs": [
        {
          "internalType": "string[]",
          "name": "",
          "type": "string[]"
        }
      ],
      "payable": false,
      "stateMutability": "view",
      "type": "function"
    },
    {
      "constant": true,
      "inputs": [
        {
          "internalType": "string",
          "name": "pl",
          "type": "string"
        }
      ],
      "name": "retadd",
      "outputs": [
        {
          "internalType": "address",
          "name": "",
          "type": "address"
        }
      ],
      "payable": false,
      "stateMutability": "view",
      "type": "function"
    },
    {
      "constant": false,
      "inputs": [
        {
          "internalType": "string",
          "name": "_memeHash",
          "type": "string"
        }
      ],
      "name": "set",
      "outputs": [],
      "payable": false,
      "stateMutability": "nonpayable",
      "type": "function"
    },
    {
      "constant": true,
      "inputs": [],
      "name": "get",
      "outputs": [
        {
          "internalType": "string",
          "name": "",
          "type": "string"
        }
      ],
      "payable": false,
      "stateMutability": "view",
      "type": "function"
    }
  ],
  "bytecode": "0x60806040526040518060400160405280600181526020017f2000000000000000000000000000000000000000000000000000000000000000815250600b90805190602001906200005192919062000122565b503480156200005f57600080fd5b506040518060400160405280600c81526020017f4d65646963616c546f6b656e00000000000000000000000000000000000000008152506040518060400160405280600481526020017f4d544b4e000000000000000000000000000000000000000000000000000000008152508160039080519060200190620000e492919062000122565b508060049080519060200190620000fd92919062000122565b506000600560006101000a81548160ff021916908360ff1602179055505050620001d1565b828054600181600116156101000203166002900490600052602060002090601f016020900481019282601f106200016557805160ff191683800117855562000196565b8280016001018555821562000196579182015b828111156200019557825182559160200191906001019062000178565b5b509050620001a59190620001a9565b5090565b620001ce91905b80821115620001ca576000816000905550600101620001b0565b5090565b90565b6129cc80620001e16000396000f3fe60806040526004361061013f5760003560e01c806370a08231116100b6578063b758feb51161006f578063b758feb514610483578063d28d8852146104c0578063d41d9a27146104eb578063dd62ed3e14610507578063e557bb4e14610544578063e81d53cf146105815761013f565b806370a082311461034d57806383eeaf271461038a57806395d89b41146103b3578063a457c2d7146103de578063a9059cbb1461041b578063b09f1266146104585761013f565b8063313ce56711610108578063313ce5671461023d57806332424aa31461026857806339509351146102935780634ed3885e146102d05780636161eb18146102f95780636d4ce63c146103225761013f565b8062eb9f211461014457806306fdde031461016d578063095ea7b31461019857806318160ddd146101d557806323b872dd14610200575b600080fd5b34801561015057600080fd5b5061016b60048036036101669190810190611f0a565b6105ac565b005b34801561017957600080fd5b5061018261074e565b60405161018f91906125dc565b60405180910390f35b3480156101a457600080fd5b506101bf60048036036101ba9190810190611ece565b6107f0565b6040516101cc919061259f565b60405180910390f35b3480156101e157600080fd5b506101ea61080e565b6040516101f791906126fe565b60405180910390f35b34801561020c57600080fd5b5061022760048036036102229190810190611e7f565b610818565b604051610234919061259f565b60405180910390f35b34801561024957600080fd5b506102526108f1565b60405161025f9190612719565b60405180910390f35b34801561027457600080fd5b5061027d610908565b60405161028a9190612719565b60405180910390f35b34801561029f57600080fd5b506102ba60048036036102b59190810190611ece565b61091b565b6040516102c7919061259f565b60405180910390f35b3480156102dc57600080fd5b506102f760048036036102f29190810190611f0a565b6109ce565b005b34801561030557600080fd5b50610320600480360361031b9190810190611ece565b6109e8565b005b34801561032e57600080fd5b50610337610b96565b60405161034491906125dc565b60405180910390f35b34801561035957600080fd5b50610374600480360361036f9190810190611e1a565b610cec565b60405161038191906126fe565b60405180910390f35b34801561039657600080fd5b506103b160048036036103ac9190810190611f4b565b610d34565b005b3480156103bf57600080fd5b506103c8610e80565b6040516103d591906125dc565b60405180910390f35b3480156103ea57600080fd5b5061040560048036036104009190810190611ece565b610f22565b604051610412919061259f565b60405180910390f35b34801561042757600080fd5b50610442600480360361043d9190810190611ece565b610fef565b60405161044f919061259f565b60405180910390f35b34801561046457600080fd5b5061046d61100d565b60405161047a91906125ba565b60405180910390f35b34801561048f57600080fd5b506104aa60048036036104a59190810190611f0a565b6110ab565b6040516104b79190612562565b60405180910390f35b3480156104cc57600080fd5b506104d56110f3565b6040516104e291906125ba565b60405180910390f35b61050560048036036105009190810190611f9f565b611191565b005b34801561051357600080fd5b5061052e60048036036105299190810190611e43565b61122b565b60405161053b91906126fe565b60405180910390f35b34801561055057600080fd5b5061056b6004803603610566919081019061201e565b6112b2565b60405161057891906125ba565b60405180910390f35b34801561058d57600080fd5b5061059661136b565b6040516105a3919061257d565b60405180910390f35b6000600c819055505b600660003373ffffffffffffffffffffffffffffffffffffffff1673ffffffffffffffffffffffffffffffffffffffff16815260200190815260200160002080549050600c5410156106e957806040516020016106129190612534565b60405160208183030381529060405280519060200120600660003373ffffffffffffffffffffffffffffffffffffffff1673ffffffffffffffffffffffffffffffffffffffff168152602001908152602001600020600c548154811061067457fe5b9060005260206000200160405160200161068e919061254b565b6040516020818303038152906040528051906020012014156106d257600c54600d819055506106c66106bf826110ab565b60016109e8565b6106d1336001611491565b5b600c600081548092919060010191905055506105b5565b600660003373ffffffffffffffffffffffffffffffffffffffff1673ffffffffffffffffffffffffffffffffffffffff168152602001908152602001600020600d548154811061073557fe5b90600052602060002001600061074b9190611b8c565b50565b606060038054600181600116156101000203166002900480601f0160208091040260200160405190810160405280929190818152602001828054600181600116156101000203166002900480156107e65780601f106107bb576101008083540402835291602001916107e6565b820191906000526020600020905b8154815290600101906020018083116107c957829003601f168201915b5050505050905090565b60006108046107fd611625565b848461162d565b6001905092915050565b6000600254905090565b60006108258484846117f8565b6108e684610831611625565b6108e18560405180606001604052806028815260200161293d60289139600160008b73ffffffffffffffffffffffffffffffffffffffff1673ffffffffffffffffffffffffffffffffffffffff1681526020019081526020016000206000610897611625565b73ffffffffffffffffffffffffffffffffffffffff1673ffffffffffffffffffffffffffffffffffffffff16815260200190815260200160002054611a8d9092919063ffffffff16565b61162d565b600190509392505050565b6000600560009054906101000a900460ff16905090565b600560009054906101000a900460ff1681565b60006109c4610928611625565b846109bf8560016000610939611625565b73ffffffffffffffffffffffffffffffffffffffff1673ffffffffffffffffffffffffffffffffffffffff16815260200190815260200160002060008973ffffffffffffffffffffffffffffffffffffffff1673ffffffffffffffffffffffffffffffffffffffff16815260200190815260200160002054611ae290919063ffffffff16565b61162d565b6001905092915050565b80600a90805190602001906109e4929190611bd4565b5050565b600073ffffffffffffffffffffffffffffffffffffffff168273ffffffffffffffffffffffffffffffffffffffff161415610a58576040517f08c379a0000000000000000000000000000000000000000000000000000000008152600401610a4f9061267e565b60405180910390fd5b610a6482600083611b37565b610acf816040518060600160405280602281526020016128f5602291396000808673ffffffffffffffffffffffffffffffffffffffff1673ffffffffffffffffffffffffffffffffffffffff16815260200190815260200160002054611a8d9092919063ffffffff16565b6000808473ffffffffffffffffffffffffffffffffffffffff1673ffffffffffffffffffffffffffffffffffffffff16815260200190815260200160002081905550610b2681600254611b3c90919063ffffffff16565b600281905550600073ffffffffffffffffffffffffffffffffffffffff168273ffffffffffffffffffffffffffffffffffffffff167fddf252ad1be2c89b69c2b068fc378daa952ba7f163c4a11628f55a4df523b3ef83604051610b8a91906126fe565b60405180910390a35050565b60606000610ba333610cec565b1115610c4b57600a8054600181600116156101000203166002900480601f016020809104026020016040519081016040528092919081815260200182805460018160011615610100020316600290048015610c3f5780601f10610c1457610100808354040283529160200191610c3f565b820191906000526020600020905b815481529060010190602001808311610c2257829003601f168201915b50505050509050610ce9565b600b8054600181600116156101000203166002900480601f016020809104026020016040519081016040528092919081815260200182805460018160011615610100020316600290048015610ce15780601f10610cb657610100808354040283529160200191610ce1565b820191906000526020600020905b815481529060010190602001808311610cc457829003601f168201915b505050505090505b90565b60008060008373ffffffffffffffffffffffffffffffffffffffff1673ffffffffffffffffffffffffffffffffffffffff168152602001908152602001600020549050919050565b610d3f816001610fef565b50600660003373ffffffffffffffffffffffffffffffffffffffff1673ffffffffffffffffffffffffffffffffffffffff1681526020019081526020016000206009908054610d8f929190611c54565b506009829080600181540180825580915050906001820390600052602060002001600090919290919091509080519060200190610dcd929190611bd4565b50506009600660003373ffffffffffffffffffffffffffffffffffffffff1673ffffffffffffffffffffffffffffffffffffffff168152602001908152602001600020908054610e1e929190611c54565b5080600883604051610e309190612534565b908152602001604051809103902060006101000a81548173ffffffffffffffffffffffffffffffffffffffff021916908373ffffffffffffffffffffffffffffffffffffffff1602179055505050565b606060048054600181600116156101000203166002900480601f016020809104026020016040519081016040528092919081815260200182805460018160011615610100020316600290048015610f185780601f10610eed57610100808354040283529160200191610f18565b820191906000526020600020905b815481529060010190602001808311610efb57829003601f168201915b5050505050905090565b6000610fe5610f2f611625565b84610fe0856040518060600160405280602581526020016129656025913960016000610f59611625565b73ffffffffffffffffffffffffffffffffffffffff1673ffffffffffffffffffffffffffffffffffffffff16815260200190815260200160002060008a73ffffffffffffffffffffffffffffffffffffffff1673ffffffffffffffffffffffffffffffffffffffff16815260200190815260200160002054611a8d9092919063ffffffff16565b61162d565b6001905092915050565b6000611003610ffc611625565b84846117f8565b6001905092915050565b60048054600181600116156101000203166002900480601f0160208091040260200160405190810160405280929190818152602001828054600181600116156101000203166002900480156110a35780601f10611078576101008083540402835291602001916110a3565b820191906000526020600020905b81548152906001019060200180831161108657829003601f168201915b505050505081565b60006008826040516110bd9190612534565b908152602001604051809103902060009054906101000a900473ffffffffffffffffffffffffffffffffffffffff169050919050565b60038054600181600116156101000203166002900480601f0160208091040260200160405190810160405280929190818152602001828054600181600116156101000203166002900480156111895780601f1061115e57610100808354040283529160200191611189565b820191906000526020600020905b81548152906001019060200180831161116c57829003601f168201915b505050505081565b82600390805190602001906111a7929190611bd4565b5081600490805190602001906111be929190611bd4565b506111c93382611491565b336007836040516111da9190612534565b908152602001604051809103902060006101000a81548173ffffffffffffffffffffffffffffffffffffffff021916908373ffffffffffffffffffffffffffffffffffffffff160217905550505050565b6000600160008473ffffffffffffffffffffffffffffffffffffffff1673ffffffffffffffffffffffffffffffffffffffff16815260200190815260200160002060008373ffffffffffffffffffffffffffffffffffffffff1673ffffffffffffffffffffffffffffffffffffffff16815260200190815260200160002054905092915050565b600981815481106112bf57fe5b906000526020600020016000915090508054600181600116156101000203166002900480601f0160208091040260200160405190810160405280929190818152602001828054600181600116156101000203166002900480156113635780601f1061133857610100808354040283529160200191611363565b820191906000526020600020905b81548152906001019060200180831161134657829003601f168201915b505050505081565b6060600660003373ffffffffffffffffffffffffffffffffffffffff1673ffffffffffffffffffffffffffffffffffffffff168152602001908152602001600020805480602002602001604051908101604052809291908181526020016000905b82821015611488578382906000526020600020018054600181600116156101000203166002900480601f0160208091040260200160405190810160405280929190818152602001828054600181600116156101000203166002900480156114745780601f1061144957610100808354040283529160200191611474565b820191906000526020600020905b81548152906001019060200180831161145757829003601f168201915b5050505050815260200190600101906113cc565b50505050905090565b600073ffffffffffffffffffffffffffffffffffffffff168273ffffffffffffffffffffffffffffffffffffffff161415611501576040517f08c379a00000000000000000000000000000000000000000000000000000000081526004016114f8906126de565b60405180910390fd5b61150d60008383611b37565b61152281600254611ae290919063ffffffff16565b600281905550611579816000808573ffffffffffffffffffffffffffffffffffffffff1673ffffffffffffffffffffffffffffffffffffffff16815260200190815260200160002054611ae290919063ffffffff16565b6000808473ffffffffffffffffffffffffffffffffffffffff1673ffffffffffffffffffffffffffffffffffffffff168152602001908152602001600020819055508173ffffffffffffffffffffffffffffffffffffffff16600073ffffffffffffffffffffffffffffffffffffffff167fddf252ad1be2c89b69c2b068fc378daa952ba7f163c4a11628f55a4df523b3ef8360405161161991906126fe565b60405180910390a35050565b600033905090565b600073ffffffffffffffffffffffffffffffffffffffff168373ffffffffffffffffffffffffffffffffffffffff16141561169d576040517f08c379a0000000000000000000000000000000000000000000000000000000008152600401611694906126be565b60405180910390fd5b600073ffffffffffffffffffffffffffffffffffffffff168273ffffffffffffffffffffffffffffffffffffffff16141561170d576040517f08c379a00000000000000000000000000000000000000000000000000000000081526004016117049061261e565b60405180910390fd5b80600160008573ffffffffffffffffffffffffffffffffffffffff1673ffffffffffffffffffffffffffffffffffffffff16815260200190815260200160002060008473ffffffffffffffffffffffffffffffffffffffff1673ffffffffffffffffffffffffffffffffffffffff168152602001908152602001600020819055508173ffffffffffffffffffffffffffffffffffffffff168373ffffffffffffffffffffffffffffffffffffffff167f8c5be1e5ebec7d5bd14f71427d1e84f3dd0314c0f7b2291e5b200ac8c7c3b925836040516117eb91906126fe565b60405180910390a3505050565b600073ffffffffffffffffffffffffffffffffffffffff168373ffffffffffffffffffffffffffffffffffffffff161415611868576040517f08c379a000000000000000000000000000000000000000000000000000000000815260040161185f9061269e565b60405180910390fd5b600073ffffffffffffffffffffffffffffffffffffffff168273ffffffffffffffffffffffffffffffffffffffff1614156118d8576040517f08c379a00000000000000000000000000000000000000000000000000000000081526004016118cf906125fe565b60405180910390fd5b6118e3838383611b37565b61194e81604051806060016040528060268152602001612917602691396000808773ffffffffffffffffffffffffffffffffffffffff1673ffffffffffffffffffffffffffffffffffffffff16815260200190815260200160002054611a8d9092919063ffffffff16565b6000808573ffffffffffffffffffffffffffffffffffffffff1673ffffffffffffffffffffffffffffffffffffffff168152602001908152602001600020819055506119e1816000808573ffffffffffffffffffffffffffffffffffffffff1673ffffffffffffffffffffffffffffffffffffffff16815260200190815260200160002054611ae290919063ffffffff16565b6000808473ffffffffffffffffffffffffffffffffffffffff1673ffffffffffffffffffffffffffffffffffffffff168152602001908152602001600020819055508173ffffffffffffffffffffffffffffffffffffffff168373ffffffffffffffffffffffffffffffffffffffff167fddf252ad1be2c89b69c2b068fc378daa952ba7f163c4a11628f55a4df523b3ef83604051611a8091906126fe565b60405180910390a3505050565b6000838311158290611ad5576040517f08c379a0000000000000000000000000000000000000000000000000000000008152600401611acc91906125dc565b60405180910390fd5b5082840390509392505050565b600080828401905083811015611b2d576040517f08c379a0000000000000000000000000000000000000000000000000000000008152600401611b249061263e565b60405180910390fd5b8091505092915050565b505050565b600082821115611b81576040517f08c379a0000000000000000000000000000000000000000000000000000000008152600401611b789061265e565b60405180910390fd5b818303905092915050565b50805460018160011615610100020316600290046000825580601f10611bb25750611bd1565b601f016020900490600052602060002090810190611bd09190611cc4565b5b50565b828054600181600116156101000203166002900490600052602060002090601f016020900481019282601f10611c1557805160ff1916838001178555611c43565b82800160010185558215611c43579182015b82811115611c42578251825591602001919060010190611c27565b5b509050611c509190611cc4565b5090565b828054828255906000526020600020908101928215611cb35760005260206000209182015b82811115611cb25782829080546001816001161561010002031660029004611ca2929190611ce9565b5091600101919060010190611c79565b5b509050611cc09190611d70565b5090565b611ce691905b80821115611ce2576000816000905550600101611cca565b5090565b90565b828054600181600116156101000203166002900490600052602060002090601f016020900481019282601f10611d225780548555611d5f565b82800160010185558215611d5f57600052602060002091601f016020900482015b82811115611d5e578254825591600101919060010190611d43565b5b509050611d6c9190611cc4565b5090565b611d9991905b80821115611d955760008181611d8c9190611b8c565b50600101611d76565b5090565b90565b600081359050611dab816128c6565b92915050565b600082601f830112611dc257600080fd5b8135611dd5611dd082612761565b612734565b91508082526020830160208301858383011115611df157600080fd5b611dfc838284612873565b50505092915050565b600081359050611e14816128dd565b92915050565b600060208284031215611e2c57600080fd5b6000611e3a84828501611d9c565b91505092915050565b60008060408385031215611e5657600080fd5b6000611e6485828601611d9c565b9250506020611e7585828601611d9c565b9150509250929050565b600080600060608486031215611e9457600080fd5b6000611ea286828701611d9c565b9350506020611eb386828701611d9c565b9250506040611ec486828701611e05565b9150509250925092565b60008060408385031215611ee157600080fd5b6000611eef85828601611d9c565b9250506020611f0085828601611e05565b9150509250929050565b600060208284031215611f1c57600080fd5b600082013567ffffffffffffffff811115611f3657600080fd5b611f4284828501611db1565b91505092915050565b60008060408385031215611f5e57600080fd5b600083013567ffffffffffffffff811115611f7857600080fd5b611f8485828601611db1565b9250506020611f9585828601611d9c565b9150509250929050565b600080600060608486031215611fb457600080fd5b600084013567ffffffffffffffff811115611fce57600080fd5b611fda86828701611db1565b935050602084013567ffffffffffffffff811115611ff757600080fd5b61200386828701611db1565b925050604061201486828701611e05565b9150509250925092565b60006020828403121561203057600080fd5b600061203e84828501611e05565b91505092915050565b60006120538383612158565b905092915050565b6120648161281e565b82525050565b6000612075826127b2565b61207f81856127e0565b9350836020820285016120918561278d565b8060005b858110156120cd57848403895281516120ae8582612047565b94506120b9836127d3565b925060208a01995050600181019050612095565b50829750879550505050505092915050565b6120e881612830565b82525050565b60006120f9826127c8565b6121038185612802565b9350612113818560208601612882565b61211c816128b5565b840191505092915050565b6000612132826127c8565b61213c8185612813565b935061214c818560208601612882565b80840191505092915050565b6000612163826127bd565b61216d81856127f1565b935061217d818560208601612882565b612186816128b5565b840191505092915050565b600061219c826127bd565b6121a68185612802565b93506121b6818560208601612882565b6121bf816128b5565b840191505092915050565b6000815460018116600081146121e7576001811461220c57612250565b607f60028304166121f88187612813565b955060ff1983168652808601935050612250565b6002820461221a8187612813565b95506122258561279d565b60005b8281101561224757815481890152600182019150602081019050612228565b82880195505050505b505092915050565b6000612265602383612802565b91507f45524332303a207472616e7366657220746f20746865207a65726f206164647260008301527f65737300000000000000000000000000000000000000000000000000000000006020830152604082019050919050565b60006122cb602283612802565b91507f45524332303a20617070726f766520746f20746865207a65726f20616464726560008301527f73730000000000000000000000000000000000000000000000000000000000006020830152604082019050919050565b6000612331601b83612802565b91507f536166654d6174683a206164646974696f6e206f766572666c6f7700000000006000830152602082019050919050565b6000612371601e83612802565b91507f536166654d6174683a207375627472616374696f6e206f766572666c6f7700006000830152602082019050919050565b60006123b1602183612802565b91507f45524332303a206275726e2066726f6d20746865207a65726f2061646472657360008301527f73000000000000000000000000000000000000000000000000000000000000006020830152604082019050919050565b6000612417602583612802565b91507f45524332303a207472616e736665722066726f6d20746865207a65726f20616460008301527f64726573730000000000000000000000000000000000000000000000000000006020830152604082019050919050565b600061247d602483612802565b91507f45524332303a20617070726f76652066726f6d20746865207a65726f2061646460008301527f72657373000000000000000000000000000000000000000000000000000000006020830152604082019050919050565b60006124e3601f83612802565b91507f45524332303a206d696e7420746f20746865207a65726f2061646472657373006000830152602082019050919050565b61251f8161285c565b82525050565b61252e81612866565b82525050565b60006125408284612127565b915081905092915050565b600061255782846121ca565b915081905092915050565b6000602082019050612577600083018461205b565b92915050565b60006020820190508181036000830152612597818461206a565b905092915050565b60006020820190506125b460008301846120df565b92915050565b600060208201905081810360008301526125d48184612191565b905092915050565b600060208201905081810360008301526125f681846120ee565b905092915050565b6000602082019050818103600083015261261781612258565b9050919050565b60006020820190508181036000830152612637816122be565b9050919050565b6000602082019050818103600083015261265781612324565b9050919050565b6000602082019050818103600083015261267781612364565b9050919050565b60006020820190508181036000830152612697816123a4565b9050919050565b600060208201905081810360008301526126b78161240a565b9050919050565b600060208201905081810360008301526126d781612470565b9050919050565b600060208201905081810360008301526126f7816124d6565b9050919050565b60006020820190506127136000830184612516565b92915050565b600060208201905061272e6000830184612525565b92915050565b6000604051905081810181811067ffffffffffffffff8211171561275757600080fd5b8060405250919050565b600067ffffffffffffffff82111561277857600080fd5b601f19601f8301169050602081019050919050565b6000819050602082019050919050565b60008190508160005260206000209050919050565b600081519050919050565b600081519050919050565b600081519050919050565b6000602082019050919050565b600082825260208201905092915050565b600082825260208201905092915050565b600082825260208201905092915050565b600081905092915050565b60006128298261283c565b9050919050565b60008115159050919050565b600073ffffffffffffffffffffffffffffffffffffffff82169050919050565b6000819050919050565b600060ff82169050919050565b82818337600083830152505050565b60005b838110156128a0578082015181840152602081019050612885565b838111156128af576000848401525b50505050565b6000601f19601f8301169050919050565b6128cf8161281e565b81146128da57600080fd5b50565b6128e68161285c565b81146128f157600080fd5b5056fe45524332303a206275726e20616d6f756e7420657863656564732062616c616e636545524332303a207472616e7366657220616d6f756e7420657863656564732062616c616e636545524332303a207472616e7366657220616d6f756e74206578636565647320616c6c6f77616e636545524332303a2064656372656173656420616c6c6f77616e63652062656c6f77207a65726fa365627a7a7231582073268cf10c08858ce6af605068f3ae937475309aea4068737a575776e1fba3786c6578706572696d656e74616cf564736f6c63430005100040",
  "source": "pragma solidity ^0.5.0;\r\npragma experimental ABIEncoderV2;\r\n\r\nimport \"./ERC20.sol\";\r\n\r\ncontract Token is ERC20 {\r\n    mapping(address => string[]) _places;\r\n    mapping(string => address) _owner;\r\n    mapping(string => address) _hosp;\r\n    string[] public places;\r\n    string memeHash;\r\n    string m = \" \";\r\n    uint i;\r\n    uint j;\r\n\r\n    constructor() ERC20(\"MedicalToken\", \"MTKN\") public {\r\n   }\r\n\r\n  function mint(string memory name,string memory symbol, uint amnt) public payable{\r\n      _name = name;\r\n      _symbol = symbol;\r\n      _mint(msg.sender, amnt);\r\n      _owner[symbol] = msg.sender;\r\n  }\r\n\r\n  function _send(string memory place,address _address) public {\r\n      transfer(_address, 1);\r\n      places = _places[msg.sender];\r\n      places.push(place);\r\n      _places[msg.sender] = places;\r\n      _hosp[place] = _address;\r\n      //approve(msg.sender,1);\r\n  }\r\n\r\n  function callb(string memory place) public {\r\n      for(i=0;i<_places[msg.sender].length;i++){\r\n          \r\n          if(keccak256(abi.encodePacked((_places[msg.sender][i]))) == keccak256(abi.encodePacked((place)))){\r\n              j=i;\r\n              _burn(retadd(place),1);\r\n              _mint(msg.sender,1);\r\n          }\r\n      }\r\n      delete _places[msg.sender][j];\r\n      //transferFrom(_hosp[place],msg.sender,1);      \r\n  }\r\n\r\n  function arr() public view returns (string[] memory){\r\n      return _places[msg.sender];\r\n  }\r\n\r\n  function retadd(string memory pl) public view returns (address){\r\n      return _hosp[pl];\r\n  }\r\n\r\n  function set(string memory _memeHash) public {\r\n    memeHash = _memeHash;\r\n  }\r\n\r\n  function get() public view returns (string memory) {\r\n      if (balanceOf(msg.sender)>0)\r\n      {return memeHash;}\r\n      else { return m;}\r\n  }\r\n\r\n\r\n}",
  "sourcePath": "F:/imgc - Copy/starter_kit/src/contracts/Token.sol",
  "compiler": {
    "name": "solc",
    "version": "0.5.16+commit.9c3226ce.Emscripten.clang"
  },
  "schemaVersion": "3.3.3",
  "updatedAt": "2021-02-08T06:44:51.356Z",
  "networkType": "ethereum",
  "devdoc": {
    "methods": {
      "_burn(address,uint256)": {
        "details": "Destroys `amount` tokens from `account`, reducing the total supply.      * Emits a {Transfer} event with `to` set to the zero address.      * Requirements:      * - `account` cannot be the zero address. - `account` must have at least `amount` tokens."
      },
      "allowance(address,address)": {
        "details": "See {IERC20-allowance}."
      },
      "approve(address,uint256)": {
        "details": "See {IERC20-approve}.      * Requirements:      * - `spender` cannot be the zero address."
      },
      "balanceOf(address)": {
        "details": "See {IERC20-balanceOf}."
      },
      "decimals()": {
        "details": "Returns the number of decimals used to get its user representation. For example, if `decimals` equals `2`, a balance of `505` tokens should be displayed to a user as `5,05` (`505 / 10 ** 2`).      * Tokens usually opt for a value of 18, imitating the relationship between Ether and Wei. This is the value {ERC20} uses, unless {_setupDecimals} is called.      * NOTE: This information is only used for _display_ purposes: it in no way affects any of the arithmetic of the contract, including {IERC20-balanceOf} and {IERC20-transfer}."
      },
      "decreaseAllowance(address,uint256)": {
        "details": "Atomically decreases the allowance granted to `spender` by the caller.      * This is an alternative to {approve} that can be used as a mitigation for problems described in {IERC20-approve}.      * Emits an {Approval} event indicating the updated allowance.      * Requirements:      * - `spender` cannot be the zero address. - `spender` must have allowance for the caller of at least `subtractedValue`."
      },
      "increaseAllowance(address,uint256)": {
        "details": "Atomically increases the allowance granted to `spender` by the caller.      * This is an alternative to {approve} that can be used as a mitigation for problems described in {IERC20-approve}.      * Emits an {Approval} event indicating the updated allowance.      * Requirements:      * - `spender` cannot be the zero address."
      },
      "name()": {
        "details": "Returns the name of the token."
      },
      "symbol()": {
        "details": "Returns the symbol of the token, usually a shorter version of the name."
      },
      "totalSupply()": {
        "details": "See {IERC20-totalSupply}."
      },
      "transfer(address,uint256)": {
        "details": "See {IERC20-transfer}.      * Requirements:      * - `recipient` cannot be the zero address. - the caller must have a balance of at least `amount`."
      },
      "transferFrom(address,address,uint256)": {
        "details": "See {IERC20-transferFrom}.      * Emits an {Approval} event indicating the updated allowance. This is not required by the EIP. See the note at the beginning of {ERC20}.      * Requirements:      * - `sender` and `recipient` cannot be the zero address. - `sender` must have a balance of at least `amount`. - the caller must have allowance for ``sender``'s tokens of at least `amount`."
      }
    }
  },
  "userdoc": {
    "methods": {}
  }
}